:100000000C9459000C9481000C9481000C94810094
:100010000C9481000C9481000C9481000C9481005C
:100020000C9481000C9481000C9481000C9481004C
:100030000C9481000C9481000C9481000C9481003C
:100040000C9443110C9481000C94B3110C948D11F9
:100050000C9481000C9481000C9481000C9481001C
:100060000C94E5110C94810000000000250028008C
:100070002B00040404040404040402020202020229
:10008000030303030303010204081020408001025C
:1000900004081020010204081020000000080002DB
:1000A000010000030407000000000000000004132A
:1000B0004E1411241FBECFEFD8E0DEBFCDBF11E03C
:1000C000A0E0B1E0E6EFFFE202C005900D92AA3D8C
:1000D000B107D9F723E0AAEDB1E001C01D92AE3B14
:1000E000B207E1F710E0C8E5D0E004C02197FE01B7
:1000F0000E947814C735D107C9F70E9457130C9492
:10010000EE170C9400000895089590E0FC01E65667
:10011000FF4F2491FC01EA57FF4F3491FC01EE5848
:10012000FF4FE491EE23C9F0222339F0233001F18F
:10013000A8F4213019F1223029F1F0E0EE0FFF1F71
:10014000E859FF4FA591B4918FB7F894EC916111E4
:1001500026C030953E233C938FBF08952730A9F0E9
:100160002830C9F0243049F7809180008F7D03C08A
:10017000809180008F7780938000DFCF84B58F7768
:1001800084BDDBCF84B58F7DFBCF8091B0008F77AE
:100190008093B000D2CF8091B0008F7DF9CF3E2BFD
:1001A000DACFFC0183858F3F19F061E00C94850064
:1001B0000895FC0180819181892B39F0A281B3815E
:1001C0009C9111968C919CBD8DBD83858F3F19F0BC
:1001D00060E00C94850008958230910538F0880F16
:1001E000991F880F991F05970197F1F70895AF920E
:1001F000BF92CF92DF92EF92FF920F931F93CF9314
:10020000DF93EC0188819981892B89F06EBD0DB453
:1002100007FEFDCFBEB48B2DDF91CF911F910F91C3
:10022000FF90EF90DF90CF90BF90AF9008958885BA
:10023000998511E0892B09F010E8AA24A394862F50
:10024000812309F0A12C062F2C813D814E815F81F5
:1002500060E271EA87E090E00E945614F22EB02E20
:10026000E12CC22ED12CFF2019F0C6010E94EC0017
:100270008A85877F09F042C08D858F3F89F0902F56
:10028000912381E009F480E08A1551F0EF85F88927
:100290008F89992369F19081892B8083AA24A39463
:1002A000E989FA898081998D892B8083FF2019F053
:1002B000C6010E94EC008E858F3F39F0EB89FC89E6
:1002C0008081988D892309F0E12AE989FA89908152
:1002D000898D8095892380838E858F3F09F0BE2C80
:1002E00088859985892BB9F5110F1111BCCF93CF52
:1002F0009081809589238083A12CD2CFE989FA89C6
:100300008081998D892B8083FF2019F0C6010E947E
:10031000EC008D858F3F49F0EF85F8898F89902F0C
:100320009123A9F09081892B8083E989FA899081B2
:10033000898D8095892380838E858F3F69F2EB8933
:10034000FC898081988D892339F2E12AC5CF90817B
:1003500080958923E9CF1695C8CF8F929F92AF924F
:10036000BF92CF92DF92EF92FF920F931F93CF93A2
:10037000DF937C014B016A01B22EA32E0E94D900AB
:10038000E401C80CD91CCC15DD0569F4CB2DDA2DA0
:100390000C0F1D1FC017D10759F06FEFC7010E9446
:1003A000F7008993F7CF6991C7010E94F700EBCF5F
:1003B000C7010E94D10081E0DF91CF911F910F9181
:1003C000FF90EF90DF90CF90BF90AF909F908F9075
:1003D00008958F929F92AF92BF92CF92DF92EF9249
:1003E000FF920F931F93CF93DF937C01B62EA72E1E
:1003F0006A0149010E94D900E401080D191DC017C6
:10040000D10761F4CB2DDA2DCC0EDD1ECC15DD0528
:1004100051F06991C7010E94F700F8CF6991C701B7
:100420000E94F700ECCFC7010E94D10081E0DF916C
:10043000CF911F910F91FF90EF90DF90CF90BF90E1
:10044000AF909F908F9008953FB7F89480912302CA
:1004500090912402A0912502B091260226B5A89B76
:1004600005C02F3F19F00196A11DB11D3FBFBA2F46
:10047000A92F982F8827BC01CD01620F711D811D06
:10048000911D42E0660F771F881F991F4A95D1F78B
:1004900008958F929F92AF92BF92CF92DF92EF9288
:1004A000FF924B015C010E9424026B017C010E94BF
:1004B00024026C197D098E099F09683E73408105ED
:1004C0009105A8F321E0821A9108A108B10888EEED
:1004D000C80E83E0D81EE11CF11C81149104A10414
:1004E000B10429F7FF90EF90DF90CF90BF90AF90CD
:1004F0009F908F900895AF92BF92CF92DF92EF922C
:10050000FF920F931F93CF93DF936C017B018B01BD
:10051000040F151FEB015E01AE18BF08C017D1070D
:1005200059F06991D601ED91FC910190F081E02D97
:10053000C6010995892B79F7C501DF91CF911F91EC
:100540000F91FF90EF90DF90CF90BF90AF90089504
:10055000FC01538D448D252F30E0842F90E0821BC9
:10056000930B541710F0CF96089501970895FC014E
:10057000918D828D981761F0A28DAE0FBF2FB11DA6
:100580005D968C91928D9F5F9F73928F90E00895FE
:100590008FEF9FEF0895FC01918D828D981731F0B8
:1005A000828DE80FF11D858D90E008958FEF9FEF0C
:1005B0000895FC01918D228D892F90E0805C9F4FE2
:1005C000821B91098F73992708958DE992E00E940B
:1005D000D90221E0892B09F420E0822F089580E0E0
:1005E00090E0892B29F00E94E50281110C94000013
:1005F0000895FC01A48DA80FB92FB11DA35ABF4FB8
:100600002C91848D90E001968F739927848FA68911
:10061000B7892C93A089B1898C91837080648C9365
:10062000938D848D981306C00288F389E02D808114
:100630008F7D80830895EF92FF920F931F93CF9346
:10064000DF93EC0181E0888F9B8D8C8D98131AC00D
:10065000E889F989808185FF15C09FB7F894EE89F4
:10066000FF896083E889F989808183708064808351
:100670009FBF81E090E0DF91CF911F910F91FF909C
:10068000EF900895F62E0B8D10E00F5F1F4F0F7344
:100690001127E02E8C8D8E110CC00FB607FCFACFFF
:1006A000E889F989808185FFF5CFCE010E94F902A2
:1006B000F1CFEB8DEC0FFD2FF11DE35AFF4FF082D0
:1006C0009FB7F8940B8FEA89FB8980818062CFCF36
:1006D000CF93DF93EC01888D8823B9F0AA89BB8979
:1006E000E889F9898C9185FD03C0808186FD0DC064
:1006F0000FB607FCF7CF8C9185FFF2CF808185FF85
:10070000EDCFCE010E94F902E9CFDF91CF9108959C
:10071000089508952091FB01260F3327331F2132BE
:100720003105ECF420917302FC0190E080E024306C
:1007300069F082E00895A091FB012191AC0145523E
:100740005E4FA40FB52FB11D2C930196861798F319
:100750008091FB01680F6093FB0180E0089581E0C8
:1007600008951092730281E08093720210924D02FC
:1007700061E082E10E94850061E083E10E948500E2
:10078000E9EBF0E080818E7F808380818D7F8083A4
:1007900088E48093B80085E48093BC0008951092AB
:1007A0004C0210924B0210927A0210929C020E940C
:1007B000B10383E890E090934A028093490284E871
:1007C00090E090934802809347020895CF93DF937F
:1007D00091E09093DA018823B9F0C091B800D091EC
:1007E000BA008091BC008A7B8093BC0060E082E10B
:1007F0000E94850060E083E10E9485000E94B103B1
:10080000D093BA00C093B800DF91CF9108958F9232
:100810009F92AF92BF92CF92DF92EF92FF920F938F
:100820001F93CF93DF93D0919C02D13208F0D7C0B1
:10083000182FC0919B020E9424026B017C018091C1
:10084000730281116BC082E0809373021093720275
:100850008FEF8093710210927002D0936F02ABE71A
:10086000B2E0EFE4F2E080E0D81391C010924E02C3
:1008700080914E02CC0FC82BC0934E0280914D0246
:10088000813009F088C010924D020E9424026B0151
:100890007C0180914E028093BB0080917502909103
:1008A0007602A0917702B0917802892B8A2B8B2B4C
:1008B000A1F00E942402009175021091760220910D
:1008C0007702309178026C197D098E099F0906170D
:1008D00017072807390708F442C08091BC0083FD40
:1008E000D8CF85EC8093BC000E9424026B017C0170
:1008F00080917302823009F450C0809171028F3F61
:1009000009F46FC080917102803209F46CC080914B
:100910007102803309F469C084E026C080917502B9
:1009200090917602A0917702B0917802892B8A2B60
:100930008B2B09F484CF0E94240280907502909042
:100940007602A0907702B09078026C197D098E092A
:100950009F0986169706A806B90608F070CF809101
:1009600074020E94E60385E010927A0210929C02C3
:1009700010927902DF91CF911F910F91FF90EF902C
:10098000DF90CF90BF90AF909F908F9008959D91F2
:1009900091938F5F69CF85EEA5CF8091750290917D
:1009A0007602A0917702B0917802892B8A2B8B2B4B
:1009B00009F49ECF0E9424020091750210917602E4
:1009C00020917702309178026C197D098E099F0978
:1009D000061717072807390708F08ACFC0CF81E02C
:1009E000C3CF80E0C1CF82E0BFCF83E0BDCF1F93F4
:1009F000CF93DF93EA01122FDC0111968D919C9128
:100A0000DC01ED91FC910280F381E02D0995C8177E
:100A1000D90729F4812F0E94070491E0811190E009
:100A2000892FDF91CF911F910895AF92BF92CF92FE
:100A3000DF92EF92FF920F931F93CF93DF9300D03B
:100A4000CDB7DEB7DC01211103C01A962C911A979D
:100A5000253008F043C051964D935D936D937C9380
:100A6000549790E080E0E22EF12C8E159F05B4F4AF
:100A70001C962C911C9721110AC0FD01E80FF91F4B
:100A80004587452F562F672F77270196EECFF70121
:100A9000E81BF90BEA0FFB1F4487F3CF6D018DE0D4
:100AA000C80ED11C18969C91189719968C9119977D
:100AB00099838A83AD90BC901197A114B10409F475
:100AC00041C01B960C9110E098012E0D3F1DD501E1
:100AD00014968D919C918217930710F480E016C0B4
:100AE000F50181819281208131E030937902209358
:100AF0009B0210927A0210929C020115110599F442
:100B000021E0A701B601C5010E94F7040F900F90E4
:100B1000DF91CF911F910F91FF90EF90DF90CF90D9
:100B2000BF90AF900895DC01ED91FC910280F381BC
:100B3000E02DA801BE016F5F7F4F099508171907C7
:100B400069F6DECF1296ED91FC911397309749F13B
:100B500016962D913C9117971B960C9110E023301F
:100B6000310571F48E7F89839A830F5F1F4F9E0139
:100B70002F5F3F4FA701B601CF010E94E901C6CF09
:100B80002115310519F49F779983F1CF2230310572
:100B900011F49068F9CF2130310549F79F779064BF
:100BA000F3CF1496ED91FC911597309709F496CFF9
:100BB0008085882309F492CF0680F781E02D309755
:100BC00009F48CCF9701A6011B966C91CE0101967A
:100BD00009959CCFCF93DF93EC018B818823A1F003
:100BE000888191E09093790280939B0210927A021F
:100BF00010929C0281E00E94070491E0811190E034
:100C0000892FDF91CF9108950E94CF0381E08B83DC
:100C1000CE010E94EA05982F8111E2CFF1CF08950D
:100C2000E0914C0280914B02E81730F4F0E0E95D6E
:100C3000FD4F808190E008958FEF9FEF0895909190
:100C40004C0280914B022FEF3FEF981748F4E92FA9
:100C5000F0E0E95DFD4F208130E09F5F90934C0212
:100C6000C901089580914B0290914C02891B990B08
:100C70000895CF92DF92EF92FF920F931F93CF933D
:100C8000DF937C01CB018A0120917902222389F034
:100C9000EB016B01C40ED51ECC15DD0569F0699121
:100CA000D701ED91FC910190F081E02DC7010995EC
:100CB000F3CF642F0E948A03C801DF91CF911F9167
:100CC0000F91FF90EF90DF90CF900895CF93DF9337
:100CD0001F92CDB7DEB76983209179022223F9F004
:100CE00020919C02203258F021E030E0FC01338357
:100CF000228390E080E00F90DF91CF910895809162
:100D00007A02E82FF0E0E558FD4F998190838F5FDC
:100D100080937A0280939C0281E090E0ECCF61E0C6
:100D2000CE0101960E948A03F7CF90E080E00895FB
:100D30002F923F924F925F926F927F928F929F92EB
:100D4000AF92BF92CF92DF92EF92FF920F931F93D9
:100D5000CF93DF9300D000D0CDB7DEB7DC014B01DD
:100D6000042F18969C91189719968C91199799832E
:100D70008A832D903C9011972114310409F43AC1D3
:100D80001B964C9150E0D10114968D919C91841743
:100D90009507C8F4D12C8D2D0F900F900F900F90C8
:100DA000DF91CF911F910F91FF90EF90DF90CF9047
:100DB000BF90AF909F908F907F906F905F904F907B
:100DC0003F902F900895F101808191E090937902F6
:100DD00080939B0210927A0210929C0220E0BE0146
:100DE0006F5F7F4FC1010E94F704D82E882391F2D4
:100DF000802F90E09C838B83B12CA12C01E0AB81F0
:100E0000BC81AA16BB0638F6F101848195817D016B
:100E1000EA18FB088E159F0508F47C01D101CC90DF
:100E20000E9424022B013C0180917302811172C047
:100E30001E2D113208F010E20093730221E08B8125
:100E40009C818E199F09A816B90608F420E020930A
:100E50007202BFEFB0937102109270028FEF810F98
:100E600080936F0200934E0280914E02CC0CC82AF0
:100E7000C0924E0280914D02813009F092C01092D2
:100E80004D020E9424022B013C0180914E0280936E
:100E9000BB008091750290917602A0917702B0918B
:100EA0007802892B8A2B8B2BA1F00E94240220919F
:100EB0007502309176024091770250917802641960
:100EC000750986099709261737074807590708F44F
:100ED00042C08091BC0083FDD8CFE5ECE093BC001C
:100EE0000E9424022B013C0180917302813009F49D
:100EF0005CC080917002811710F410917002AFE411
:100F0000B2E0E7E2F2E080E0811751F19D91919328
:100F10008F5FFACF8091750290917602A09177024F
:100F2000B0917802892B8A2B8B2B09F47DCF0E94FC
:100F300024022091750230917602409177025091FF
:100F40007802641975098609970926173707480733
:100F5000590708F069CF809174020E94E60310E0FF
:100F600010924C0210934B021E151F0409F012CF71
:100F700034016A0C7B1C2301C201861997098E1566
:100F80009F05A8F5D10111968D919C91DC01ED9101
:100F9000FC910284F385E02D0995F20181932F01E4
:100FA000EBCFF5EEF093BC009BCF80917502909152
:100FB0007602A0917702B0917802892B8A2B8B2B35
:100FC00009F492CF0E94240220917502309176029A
:100FD0004091770250917802641975098609970942
:100FE000261737074807590708F07ECFB4CFAE0C55
:100FF000BF1C05CF1296ED91FC911397309749F1E4
:1010000016962D913C91179710E01B964C9150E04D
:101010002330310571F4816089839A834F5F5F4F7C
:101020009401BE016F5F7F4FCF010E94AD01D82EAA
:10103000B2CE2115310519F490689983F1CF223091
:10104000310511F49F77F9CF2130310549F7906CC4
:10105000F4CF1496ED91FC911597309709F49ACE40
:101060008085882309F496CE0480F581E02D3097A1
:1010700009F490CE242F30E0AB011B966C91CE0189
:1010800001960995D4CFCF93DF93EC01BC01635F48
:101090007F4F4A850E949806882301F14A8550E0D7
:1010A00030E020E060E070E0CB0124173507CCF49D
:1010B000982F872F762F6627EC85E1110AC0FA0159
:1010C000E21BF30BEC0FFD1FE4856E2B2F5F3F4FF0
:1010D000ECCFFE01E20FF31FE585F7CF6FEF7FEF57
:1010E000CB01DF91CF9108958F929F92AF92BF92E3
:1010F000CF92DF92EF92FF920F931F93CF93DF93E4
:10110000EC014A015B01888199810E9443082A8190
:1011100001E010E002C0000F111F2A95E2F7015014
:101120001109012E000C220B330BAB8168017901F0
:101130000A2E04C0CC0CDD1CEE1CFF1C0A94D2F756
:10114000C094D094E094F094C622D722E822F922E9
:10115000E881F981B901A801482159216A217B213F
:1011600004C0440F551F661F771FAA95D2F74C295C
:101170005D296E297F292285CF01DF91CF911F91B3
:101180000F91FF90EF90DF90CF90BF90AF909F9026
:101190008F900C9415050F931F93CF93DF93EC0161
:1011A000888199810E944308AB01BC012A8181E0BA
:1011B00090E002C0880F991F2A95E2F70197092E47
:1011C000000CAA0BBB0B2B8104C076956795579535
:1011D00047952A95D2F78C019D01042315232623D8
:1011E0003723C901B801DF91CF911F910F91089565
:1011F000AF92BF92CF92DF92EF92FF920F931F9325
:10120000CF93DF93CDB7DEB7EC970FB6F894DEBF80
:101210000FBECDBF8C01FC01868D978D1FA218A635
:1012200019A61AA69F8B8E8B198E188EFF24F39405
:10123000F9A28BE390E09F8F8E8F1AA28EE088A395
:101240004EE0BE01655D7F4FCE0146960E94980636
:101250008BA59CA5982789279827F80195A784A78F
:101260008DA59EA598278927982797A786A78FA53C
:1012700098A998278927982791AB80AB69A97AA963
:1012800076276727762773AB62AB8BA99CA9982733
:101290008927982795AB84AB8DA99EA99827892784
:1012A000982797AB86AB8FA998AD98278927982761
:1012B00091AF80AF072E000C880B990B0E949315FD
:1012C00020E030E04AEA53E40E94F01428EB3EE1CB
:1012D00042E152E40E947F14F801628373838483A5
:1012E0009583868D978D1A8A1B8A1C8A1D8A9A83FC
:1012F00089831C821B82FC868CE190E09A87898717
:101300001D86FB86CE0101965C019AAF89AF82E013
:101310008BAF83E08CAFCE01C9960E94CB08C12C65
:10132000D12CE12CE5E4FE2E63307105E1F0623052
:10133000710599F06130710509F4D6C0C12CD12C2A
:10134000F0E8EF2EFFE3FF2E672B69F4C12CD12CC0
:1013500050E8E52E56E4F52E06C0C12CD12C70E8DD
:10136000E72E75E4F72EF80164A575A5072E000C8D
:10137000880B990B0E949315A70196010E94F01407
:10138000F801668377838087918766A577A5072E06
:10139000000C880B990B0E949315A70196010E94DF
:1013A000F014F801628773878487958760A971A913
:1013B000072E000C880B990B0E949315A70196012C
:1013C0000E94F014F80166877787808B918B868D59
:1013D000978D1A8A1B8A1C8A1D8A9A8389831C828C
:1013E0001B8281E08C872BE130E03A8729871D86BC
:1013F0008B87BAAEA9AE82E08BAF83E08CAFCE0113
:10140000C9960E94CB08C12CD12C33E0E32E33E4E3
:10141000F32E6115710519F1C12CD12C23E8E22EB0
:1014200022E4F22E61307105D1F093E3C92EDC2C59
:1014300093E0E92E92E4F92E6230710581F0C12C1F
:10144000D12C40E8E42E4FE3F42E6330710539F4DB
:1014500083E3C82EDC2C83E8E82E81E4F82EF80123
:1014600064A975A9072E000C880B990B0E9493158F
:10147000A70196010E94F014F801628B738B848B94
:10148000958B66A977A9072E000C880B990B0E94F3
:101490009315A70196010E94F014F801668B778BD3
:1014A000808F918F60AD71AD072E000C880B990B6A
:1014B0000E949315A70196010E94F014F801628F13
:1014C000738F848F958FEC960FB6F894DEBF0FBEA6
:1014D000CDBFDF91CF911F910F91FF90EF90DF90E3
:1014E000CF90BF90AF900895C12CD12CE12C66E431
:1014F000F62E39CFFC0101900020E9F73197AF01BA
:10150000481B590BBC018DE992E00C947B028F9231
:101510009F92AF92BF920F931F93CF93DF93CDB75C
:10152000DEB7A1970FB6F894DEBF0FBECDBF19A2EC
:10153000423008F44AE08E010F5D1F4F842E912C3B
:10154000B12CA12CA50194010E945614E62FB901DB
:10155000CA01EA30F4F4E05DD801EE938D01232B4B
:10156000242B252B79F790E080E0109719F0CD011E
:101570000E947A0AA1960FB6F894DEBF0FBECDBFC7
:10158000DF91CF911F910F91BF90AF909F908F905F
:101590000895E95CE1CF4F925F926F927F928F92B4
:1015A0009F92AF92BF92CF92DF92EF92FF920F93F2
:1015B0001F93CF936B017C01742EAC019B010E94A1
:1015C000B516882399F08AE591E0CF911F910F918C
:1015D000FF90EF90DF90CF90BF90AF909F908F9053
:1015E0007F906F905F904F900C947A0A460157015C
:1015F000E894B7F82FEF3FEF4FE75FE7C501B4017D
:101600000E94B51681110DC02FEF3FEF4FE75FE746
:10161000C501B4010E94EB1418161CF48EE591E08C
:10162000D4CF2FEF3FEF4FE75FE4C701B6010E9431
:10163000431618161CF482E691E0C7CF2FEF3FEF58
:101640004FE75FECC701B6010E94EB1487FDF3CFB3
:1016500020E030E0A901C701B6010E94EB1410E0C0
:1016600000E087FF0AC06DE28DE992E00E941B0353
:101670008C01F7FAF094F7F8F094C0E060E070E0C5
:1016800080E09FE37C1641F020E030E040E251E44E
:101690000E94F014CF5FF6CFA70196010E947F143D
:1016A0002B013C010E9462154B015C014AE00E9443
:1016B000870A7C01E00EF11ECC23C1F1C501B40103
:1016C0000E9491159B01AC01C301B2010E947E14DE
:1016D0004B015C016EE28DE992E00E941B03E80E73
:1016E000F91EC15018F120E030E040E251E4C5019C
:1016F000B4010E9448162B013C010E9462154B0167
:10170000B12CA12C4AE0C501B4010E94870AE80E61
:10171000F91EC501B4010E9491159B01AC01C301E2
:10172000B2010E947E144B015C01DBCFC701CF9157
:101730001F910F91FF90EF90DF90CF90BF90AF90EF
:101740009F908F907F906F905F904F9008950C9432
:1017500056170C9456170C945617CF93DF93EC0141
:1017600088E591E09983888388A199A1009739F051
:10177000DC01ED91FC910280F381E02D09958AA1B5
:101780009BA1009739F0DC01ED91FC910280F3817F
:10179000E02D09958CA19DA1009739F0DC01ED9118
:1017A000FC910280F381E02D09958E8D9F8D00972D
:1017B00021F0DF91CF910C945617DF91CF910895CE
:1017C0009F92AF92BF92CF92DF92EF92FF920F93D0
:1017D0001F93CF93DF93CDB7DEB7AE970FB6F894D4
:1017E000DEBF0FBECDBF8C01DC0197965C934E939C
:1017F0009697CA01019699969C938E9398974E5FFF
:101800005F4F9B965C934E939A975E962D913C9179
:101810001FA218A619A61AA63F8B2E8B198E188EFA
:1018200081E089A34BE650E05F8F4E8F1AA288A318
:101830001A8A1B8A1C8A1D8A3A8329831C821B826E
:101840008C8728E630E03A8729871D868B875E01E2
:10185000B6E1AB0EB11CBCA6ABA68DA787E08EA7E8
:1018600041E050E060E070E0CE018B960E94740889
:10187000CE018B960E94CB086130710581059105E0
:1018800039F461E070E080E090E00E944902F0CF1E
:1018900064E670E080E090E00E94490220E047E0CA
:1018A00050E060E070E0FE0131966F01CF010E94D0
:1018B000150564E670E080E090E00E944902D801DE
:1018C0005E968D919C911A8A1B8A1C8A1D8A9A8326
:1018D00089831C821B82FF24F394FC8689E190E0BB
:1018E0009A8789871D86FB8620E040E050E0BA0198
:1018F000C6010E941505F801868D978D1A8A1B8AEC
:101900001C8A1D8A9A8389831C821B82FC868AE139
:1019100090E09A8789871D86FB86DF8ACE8A83E0DE
:10192000E82EE88E198E40E050E0BA01C5010E9411
:101930007408D8015E968D919C911A8A1B8A1C8A24
:101940001D8A9A8389831C821B82FC868BE190E02E
:101950009A8789871D86FB86DF8ACE8A92E0992E38
:10196000988EE98E41E050E060E070E0C5010E9491
:101970007408F801868D978D1A8A1B8A1C8A1D8A25
:101980009A8389831C821B82FC868CE190E09A8773
:1019900089871D86FB86DF8ACE8A988EE98E40E095
:1019A00050E0BA01C5010E947408D8015E968D917D
:1019B0009C911A8A1B8A1C8A1D8A9A8389831C829D
:1019C0001B82FC868BE690E09A8789871D86FB86C2
:1019D00020E041E050E060E070E0C6010E941505A3
:1019E00064E670E080E090E00E944902F80180A186
:1019F00091A1009739F0DC01ED91FC910280F38117
:101A0000E02D0995F80182A193A1009739F0DC013E
:101A1000ED91FC910280F381E02D0995F80184A1FC
:101A200095A1009739F0DC01ED91FC910280F381E2
:101A3000E02D099586E090E00E94BA16FC0186E24E
:101A400091E09183808380E596E093838283158380
:101A50000483D8019196FC93EE93909786E090E0F2
:101A60000E94BA16FC0188E191E09183808381E5B0
:101A700096E09383828315830483D8019396FC9325
:101A8000EE93929786E090E00E94BA16FC018AE0FD
:101A900091E09183808382E596E09383828315832E
:101AA0000483D8019596FC93EE93949781E0AE96CB
:101AB0000FB6F894DEBF0FBECDBFDF91CF911F915F
:101AC0000F91FF90EF90DF90CF90BF90AF909F90DD
:101AD0000895AF92BF92DF92EF92FF920F931F9300
:101AE000CF93DF93CDB7DEB765970FB6F894DEBF1F
:101AF0000FBECDBF8C01F62EDC015E968D919C91C0
:101B0000009711F00E94561786E090E00E94BA16E6
:101B1000FC01F0828AE393E092838183138280E266
:101B200090E095838483D8015F96FC93EE935E9753
:101B300085E0D82EEE24E394F801A68CB78C0E94A1
:101B4000CF03D5011396EC92C5010E94EA05F82E49
:101B500081111AC06AE070E080E090E00E944902C2
:101B6000DA94D110E9CF8F2D65960FB6F894DEBFC9
:101B70000FBECDBFDF91CF911F910F91FF90EF90DE
:101B8000DF90BF90AF900895F801868D978D1A8AE7
:101B90001B8A1C8A1D8A9A8389831C821B82EC867D
:101BA00085E790E09A8789871D86EB86CE010196AE
:101BB0000E944308F12C683671058105910599F65C
:101BC00040E050E0BA01C8010E94E00BF82ECBCFF4
:101BD0000F931F93CF93DF938C01EB01DC011496DD
:101BE0008D919C910E94F808D8011496ED91FC917A
:101BF0008FB7F89440911F0250912002609121020A
:101C0000709122028FBF9E012C5F3F4F80E2D9016D
:101C10001D928A95E9F784E290E0A0E0B0E0888325
:101C20009983AA83BB8382A593A5B0E0A0E08C83AF
:101C30009D83AE83BF838DE090E0A0E0B0E0888715
:101C40009987AA87BB87488B598B6A8B7B8B82814C
:101C50009381A481B5818C8B9D8BAE8BBF8B81E0F2
:101C6000DF91CF911F910F910895CF92DF92EF9264
:101C7000FF920F931F93CF93DF938C01EB01DC0155
:101C800014968D919C910E94F808F80104811581A9
:101C90008FB7F894C0901F02D0902002E0902102EC
:101CA000F09022028FBFFE01349680E2DF011D9288
:101CB0008A95E9F741E050E060E070E0488359839D
:101CC0006A837B83F80186A197A1B0E0A0E08C83B2
:101CD0009D83AE83BF83488759876A877B87C88A7D
:101CE000D98AEA8AFB8A2AE038EE4CE151E466811F
:101CF0007781808591850E9448166C8B7D8B8E8BB9
:101D00009F8B2AE038EE4CE151E4D8011A966D9190
:101D10007D918D919C911D970E944816688F798FB7
:101D20008A8F9B8F2AE038EE4CE151E4F8016685FA
:101D30007785808991890E9448166C8F7D8F8E8F60
:101D40009F8F81E0DF91CF911F910F91FF90EF90D6
:101D5000DF90CF9008953F924F925F926F927F9263
:101D60008F929F92AF92BF92CF92DF92EF92FF92AB
:101D70000F931F93CF93DF93EC017B018A016901DD
:101D80008FB7F89480901F0290902002A0902102BB
:101D9000B09022028FBFCE010E94F808F60134965F
:101DA00080E2382EDF01832D1D928A95E9F784E2C7
:101DB00090E0A0E0B0E0F60180839183A283B3833A
:101DC0008AA59BA5B0E0A0E084839583A683B78312
:101DD0008DE090E0A0E0B0E080879187A287B38794
:101DE000808A918AA28AB38A8A819B81AC81BD81D3
:101DF000848B958BA68BB78BF7013496DF01832DEF
:101E00001D928A95E9F7412C512C32014394D70158
:101E10004D925D926D927C9213978EA19FA1B0E03E
:101E2000A0E0F70184839583A683B783408651861B
:101E300062867386808A918AA28AB38A2AE038EE03
:101E40004CE151E46E817F81888599850E94481616
:101E5000D70154966D937D938D939C9357972AE069
:101E600038EE4CE151E46A857B858C859D850E9426
:101E70004816F701608F718F828F938F2AE038EEBA
:101E80004CE151E46E857F85888999890E944816C6
:101E9000D7015C966D937D938D939C935F97F8012A
:101EA0003496DF011D923A94E9F7F801408251829D
:101EB0006282738288A599A5B0E0A0E084839583AF
:101EC000A683B78384E090E0A0E0B0E080879187AC
:101ED000A287B387808A918AA28AB38A25E33AEFE0
:101EE0004EE85CE36A897B898C899D890E9448164B
:101EF000F801648B758B868B978B25E33AEF4EE860
:101F00005CE36E897F89888D998D0E944816D8017F
:101F100058966D937D938D939C935B9725E33AEF51
:101F20004EE85CE36A8D7B8D8C8D9D8D0E944816FA
:101F3000F801648F758F868F978F81E0DF91CF9145
:101F40001F910F91FF90EF90DF90CF90BF90AF90D7
:101F50009F908F907F906F905F904F903F900895EB
:101F60000F931F93CF93DF938C01EB01DC01149649
:101F70008D919C910E94F808F801048115818FB71A
:101F8000F89440911F0250912002609121027091BB
:101F900022028FBFFE01349680E2DF011D928A95F6
:101FA000E9F781E090E0A0E0B0E088839983AA831C
:101FB000BB83F80180A591A5B0E0A0E08C839D8350
:101FC000AE83BF8384E090E0A0E0B0E0888799878B
:101FD000AA87BB87488B598B6A8B7B8B25E33AEFAB
:101FE0004EE85CE362897389848995890E9448166A
:101FF0006C8B7D8B8E8B9F8B25E33AEF4EE85CE3F9
:10200000D80156966D917D918D919C9159970E9422
:102010004816688F798F8A8F9B8F25E33AEF4EE8B9
:102020005CE3F801628D738D848D958D0E94481656
:102030006C8F7D8F8E8F9F8F81E0DF91CF911F916D
:102040000F9108950F931F93CF93DF938C01EB01B2
:1020500088E2FB0111928A95E9F74BE050E066E6D1
:1020600071E0CE010E94DF171B8681E090E0A0E0C6
:10207000B0E08C879D87AE87BF87F801828193810E
:10208000092E000CAA0BBB0B888B998BAA8BBB8BE0
:102090008DE090E0A0E0B0E08C8B9D8BAE8BBF8B91
:1020A0001CA21DA21EA21FA280E090E0A0E2B2EC42
:1020B0008C8F9D8FAE8FBF8F80E090E0A2EDB2E459
:1020C000888F998FAA8FBB8F84E09DEAA0E4BBE341
:1020D00088A399A3AAA3BBA3DF91CF911F910F91CE
:1020E00008950F931F93CF93DF938C01EB0188E248
:1020F000FB0111928A95E9F74BE050E060E771E04F
:10210000CE010E94DF171B8641E050E060E070E0E6
:102110004C875D876E877F87F80182819381092EC6
:10212000000CAA0BBB0B888B998BAA8BBB8B4C8B9F
:102130005D8B6E8B7F8B1CA21DA21EA21FA28AE04C
:1021400098EEACE1B3EC8C8F9D8FAE8FBF8F8AE0A1
:1021500098EEACE1B3E4888F998FAA8FBB8F83E2AE
:102160009BEDA9E7BDE388A399A3AAA3BBA3DF9135
:10217000CF911F910F9108950F931F93CF93DF93EA
:102180008C01EB0188E2FB0111928A95E9F74BE0A3
:1021900050E06AE771E0CE010E94DF171B8681E004
:1021A00090E0A0E0B0E08C879D87AE87BF87F80104
:1021B00082819381092E000CAA0BBB0B888B998B13
:1021C000AA8BBB8B84E090E0A0E0B0E08C8B9D8B71
:1021D000AE8BBF8B1CA21DA21EA21FA287ED93EA8D
:1021E000ABE0B2EC8C8F9D8FAE8FBF8F87ED93EA03
:1021F000ABE0B2E4888F998FAA8FBB8F8AE99BEA04
:10220000ABE0B9E388A399A3AAA3BBA3DF91CF91C5
:102210001F910F91089585ED8093BC008091750208
:1022200090917602A0917702B09178020796A11D55
:10223000B11D23E0B695A795979587952A95D1F777
:102240002091BC0024FD03C01092730208954091B8
:102250007502509176026091770270917802452B59
:10226000462B472B69F30097A105B10541F02AE2FF
:102270002A95F1F700C00197A109B109E1CF80913A
:1022800074020C94E6031F920F920FB60F92112462
:102290002F933F938F939F93AF93BF9380911F0290
:1022A00090912002A0912102B091220230911E0251
:1022B00023E0230F2D3758F50196A11DB11D209362
:1022C0001E0280931F0290932002A0932102B093DC
:1022D00022028091230290912402A0912502B091C4
:1022E00026020196A11DB11D809323029093240222
:1022F000A0932502B0932602BF91AF919F918F9139
:102300003F912F910F900FBE0F901F90189526E8C8
:10231000230F0296A11DB11DD2CF1F920F920FB6AF
:102320000F9211242F933F934F935F936F937F935B
:102330008F939F93AF93BF93EF93FF938DE992E0B9
:102340000E94F902FF91EF91BF91AF919F918F9100
:102350007F916F915F914F913F912F910F900FBEA1
:102360000F901F9018951F920F920FB60F92112485
:102370002F938F939F93EF93FF93E091AD02F09192
:10238000AE028081E091B302F091B40282FD1BC0E5
:1023900090818091B6028F5F8F732091B702821770
:1023A00041F0E091B602F0E0E356FD4F958F809347
:1023B000B602FF91EF919F918F912F910F900FBED9
:1023C0000F901F9018958081F4CF1F920F920FB637
:1023D0000F9211242F933F934F935F936F937F93AB
:1023E0008F939F93AF93BF93EF93FF938091B90027
:1023F000887F803609F44AC0F0F5883209F4A7C016
:1024000018F5803109F49BC0B8F4882309F4F9C0A9
:10241000883009F494C0FF91EF91BF91AF919F91E3
:102420008F917F916F915F914F913F912F910F907D
:102430000FBE0F901F901895883109F488C0803224
:1024400051F78093710214C0803409F49DC040F4A8
:102450008033B9F38833F9F68093710285ECB0C00C
:10246000803509F485C0883509F496C0883499F61A
:102470000E940B11D0CF883909F48CC038F5883709
:1024800029F050F4883611F0803729F683E08093E4
:10249000730210921D0257C0883809F47BC080393E
:1024A00019F0803809F0B7CF80911D02803208F012
:1024B00071C0E0911D0281E08E0F80931D0280911A
:1024C000BB00F0E0E350FE4F80833DC0803B39F01D
:1024D000E0F4803A09F479C0883A09F09CCF84E0AE
:1024E000809373021092FC011092FB01E09149026B
:1024F000F0914A0209958091FB0181110FC081E0A2
:102500008093FB011092DB0109C0803C09F4A6CF47
:10251000883C09F4A3CF883B09F07DCFE091FC0112
:1025200081E08E0F8093FC01F0E0E552FE4F808148
:102530008093BB009091FC018091FB0129C08091A8
:102540004E028093BB0085EC8093BC0064CF9091D9
:10255000700280916F02981758F5E091700281E047
:102560008E0F80937002F0E0E15BFD4F8081E9CF38
:10257000E091700281E08E0F809370028091BB0029
:10258000F0E0E15BFD4F80839091700280916F02DB
:102590009817C8F285E8D8CFE091700281E08E0FDD
:1025A000809370028091BB00F0E0E15BFD4F80837F
:1025B0008091720281115CCF81E080934D0284EAA8
:1025C0008093BC001092730226CF85EC8093BC00F0
:1025D0001092730280911D02803230F4E0911D024E
:1025E000F0E0E350FE4F108260911D0270E0E09138
:1025F0004702F09148028DEF91E0099510921D027B
:102600000ACF1092710234CFEDE9F2E01382128208
:1026100088EE93E0A0E0B0E084839583A683B7833F
:1026200024E331E03183208325EC30E035872487B3
:1026300024EC30E03787268720EC30E0318B208B8C
:1026400021EC30E0338B228B22EC30E0358B248B75
:1026500026EC30E0378B268B118E128E138E148E63
:10266000EAE3F3E01382128284839583A683B7831F
:1026700086E491E091838083E0E8F3E088E591E0EF
:1026800091838083178E168E11A210A213A212A21C
:1026900015A214A2E6E4F3E091838083178E168ED0
:1026A00011A210A213A212A215A214A20895CF93F0
:1026B000DF93CDB7DEB7C85DD1090FB6F894DEBFA2
:1026C0000FBECDBF789484B5826084BD84B581602F
:1026D00084BD85B5826085BD85B5816085BD8091ED
:1026E0006E00816080936E00109281008091810065
:1026F000826080938100809181008160809381005D
:10270000809180008160809380008091B10084601E
:102710008093B1008091B00081608093B00080917F
:102720007A00846080937A0080917A00826080933E
:102730007A0080917A00816080937A0080917A009B
:10274000806880937A001092C100E091AD02F09110
:10275000AE0282E08083E091A902F091AA02108289
:10276000E091AB02F091AC0280E180831092B5025F
:10277000E091B102F091B20286E08083E091AF0275
:10278000F091B002808180618083E091AF02F0918E
:10279000B002808188608083E091AF02F091B00246
:1027A000808180688083E091AF02F091B0028081E7
:1027B0008F7D80830E94CF0368E680E893E00E94CB
:1027C000690D811109C084E891E00E947A0A8EE9BE
:1027D00091E00E947A0AFFCF69E686E493E00E94C6
:1027E000690D00E010E0811109C081EA91E00E94CA
:1027F0007A0A8EE991E00E947A0AFFCF9E0123595E
:102800003F4FAE014F565F4FBE016B547F4F80E884
:1028100093E00E94AB0E8BEB91E00E947A0AC753C3
:10282000DF4F688179818A819B81C95CD04042E019
:102830000E94CB0A8EE991E00E947A0A9E012F5FE6
:102840003F4FAE014B5D5F4FBE01675B7F4F86E43C
:1028500093E00E94AB0E8AEC91E00E947A0AA19666
:102860006CAD7DAD8EAD9FADA19742E00E94CB0ACD
:102870008EE991E00E947A0A64EF71E080E090E0D6
:102880000E9449020115110509F4B8CF0E94E50222
:10289000882309F4B3CF0E940000B0CF86E493E010
:1028A0000E94AD0B80E893E00C94AD0BA1E21A2ED0
:1028B000AA1BBB1BFD010DC0AA1FBB1FEE1FFF1FE4
:1028C000A217B307E407F50720F0A21BB30BE40B34
:1028D000F50B661F771F881F991F1A9469F760957B
:1028E0007095809590959B01AC01BD01CF01089535
:1028F000EE0FFF1F0590F491E02D09945058BB276F
:10290000AA270E9496140C9409160E94FB1538F011
:102910000E94021620F039F49F3F19F426F40C941B
:10292000F8150EF4E095E7FB0C94F215E92F0E94E0
:102930001A1658F3BA17620773078407950720F031
:1029400079F4A6F50C943C160EF4E0950B2EBA2FF4
:10295000A02D0B01B90190010C01CA01A0011124A5
:10296000FF27591B99F0593F50F4503E68F11A1651
:10297000F040A22F232F342F4427585FF3CF4695E2
:1029800037952795A795F0405395C9F77EF41F1604
:10299000BA0B620B730B840BBAF09150A1F0FF0FCE
:1029A000BB1F661F771F881FC2F70EC0BA0F621FBA
:1029B000731F841F48F4879577956795B795F795AA
:1029C0009E3F08F0B0CF9395880F08F09927EE0F3F
:1029D0009795879508950E94CE1508F481E0089593
:1029E0000E9404150C9409160E94021658F00E94C9
:1029F000FB1540F029F45F3F29F00C94F2155111BA
:102A00000C943D160C94F8150E941A1668F399233D
:102A1000B1F3552391F3951B550BBB27AA276217DA
:102A20007307840738F09F5F5F4F220F331F441FE7
:102A3000AA1FA9F335D00E2E3AF0E0E832D091501B
:102A40005040E695001CCAF72BD0FE2F29D0660F08
:102A5000771F881FBB1F261737074807AB07B0E84B
:102A600009F0BB0B802DBF01FF2793585F4F3AF051
:102A70009E3F510578F00C94F2150C943D165F3F83
:102A8000E4F3983ED4F3869577956795B795F795D7
:102A90009F5FC9F7880F911D9695879597F90895BF
:102AA000E1E0660F771F881FBB1F6217730784075B
:102AB000BA0720F0621B730B840BBA0BEE1F88F76A
:102AC000E09508950E94221688F09F5798F0B92F3C
:102AD0009927B751B0F0E1F0660F771F881F991F53
:102AE0001AF0BA95C9F714C0B13091F00E943C16A3
:102AF000B1E008950C943C16672F782F8827B85FB3
:102B000039F0B93FCCF3869577956795B395D9F7AA
:102B10003EF490958095709561957F4F8F4F9F4FB4
:102B20000895E89409C097FB3EF4909580957095C0
:102B300061957F4F8F4F9F4F9923A9F0F92F96E909
:102B4000BB279395F695879577956795B795F1117E
:102B5000F8CFFAF4BB0F11F460FF1BC06F5F7F4F1B
:102B60008F4F9F4F16C0882311F096E911C077232D
:102B700021F09EE8872F762F05C0662371F096E836
:102B8000862F70E060E02AF09A95660F771F881F05
:102B9000DAF7880F9695879597F90895990F0008A9
:102BA000550FAA0BE0E8FEEF16161706E807F9071F
:102BB000C0F012161306E407F50798F0621B730BBA
:102BC000840B950B39F40A2661F0232B242B252B3B
:102BD00021F408950A2609F4A140A6958FEF811DDE
:102BE000811D089597F99F6780E870E060E008957F
:102BF0009FEF80EC089500240A9416161706180615
:102C00000906089500240A941216130614060506F0
:102C10000895092E0394000C11F4882352F0BB0F81
:102C200040F4BF2B11F460FF04C06F5F7F4F8F4FE4
:102C30009F4F089557FD9058440F551F59F05F3F1F
:102C400071F04795880F97FB991F61F09F3F79F0CE
:102C500087950895121613061406551FF2CF469550
:102C6000F1DF08C0161617061806991FF1CF8695D2
:102C70007105610508940895E894BB2766277727B6
:102C8000CB0197F908950E94CE1508F48FEF0895AF
:102C90000E945B160C9409160E94FB1538F00E94E6
:102CA000021620F0952311F00C94F2150C94F815EF
:102CB00011240C943D160E941A1670F3959FC1F3CF
:102CC000950F50E0551F629FF001729FBB27F00DDA
:102CD000B11D639FAA27F00DB11DAA1F649F66272F
:102CE000B00DA11D661F829F2227B00DA11D621F7E
:102CF000739FB00DA11D621F839FA00D611D221F38
:102D0000749F3327A00D611D231F849F600D211D1B
:102D1000822F762F6A2F11249F5750409AF0F1F09E
:102D200088234AF0EE0FFF1FBB1F661F771F881F07
:102D300091505040A9F79E3F510580F00C94F21538
:102D40000C943D165F3FE4F3983ED4F38695779557
:102D50006795B795F795E7959F5FC1F7FE2B880FAD
:102D6000911D9695879597F908950E94CE15880B29
:102D7000990B08950F931F93CF93DF9382309105A2
:102D800010F482E090E0E091BC03F091BD0330E0EC
:102D900020E0B0E0A0E0309799F42115310509F466
:102DA0004AC0281B390B24303105D8F58A819B8114
:102DB0006115710589F1FB0193838283FE0111C0C6
:102DC000408151810281138148175907E0F048176B
:102DD000590799F4109761F012960C931297139675
:102DE0001C933296CF01DF91CF911F910F910895DF
:102DF0000093BC031093BD03F4CF2115310551F0AE
:102E00004217530738F0A901DB019A01BD01DF0128
:102E1000F801C1CFEF01F9CF9093BD038093BC03BC
:102E2000CDCFFE01E20FF31F819391932250310920
:102E300039832883D7CF2091BA033091BB03232B4A
:102E400041F420910201309103013093BB032093A0
:102E5000BA0320910001309101012115310541F49F
:102E60002DB73EB74091040150910501241B350B4D
:102E7000E091BA03F091BB03E217F307A0F42E1B15
:102E80003F0B2817390778F0AC014E5F5F4F2417CE
:102E9000350748F04E0F5F1F5093BB034093BA03B2
:102EA000819391939FCFF0E0E0E09CCFCF93DF93AD
:102EB0000097E9F0FC01329713821282A091BC03C3
:102EC000B091BD03ED0130E020E01097A1F4208126
:102ED0003181820F931F2091BA033091BB032817D1
:102EE000390709F061C0F093BB03E093BA03DF91A7
:102EF000CF910895EA01CE17DF07E8F54A815B819B
:102F00009E0141155105B1F7E901FB83EA8349911F
:102F10005991C40FD51FEC17FD0761F48081918191
:102F20000296840F951FE90199838883828193819A
:102F30009B838A83F0E0E0E012968D919C91139739
:102F40000097B9F52D913C911197CD010296820F12
:102F5000931F2091BA033091BB032817390739F624
:102F6000309751F51092BD031092BC03B093BB0390
:102F7000A093BA03BCCFD383C28340815181840F15
:102F8000951FC817D90761F44E5F5F4F88819981FB
:102F9000480F591F518340838A819B819383828389
:102FA0002115310509F0B0CFF093BD03E093BC03C8
:102FB0009ECFFD01DC01C0CF13821282D7CFFB016F
:102FC000DC014150504048F001900D920020C9F7BB
:102FD00001C01D9241505040E0F7089510E0C8E54F
:102FE000D0E004C0FE010E9478142196C935D107B3
:062FF000C9F7F894FFCFC1
:102FF6000000BE038000000000008803A70B8903C1
:10300600B00FBC10000000008803A90B8903350E21
:103016007110000000008803AB0B8903E80D221035
:10302600000000001B037B02A8026803D902B70256
:10303600CB02000000006606390695060F0632062A
:103046001F06100600000000E00B6E616E00696E40
:1030560066006F7666004D5055363035305F540049
:103066004D5055363035305F41004D505536303570
:10307600305F47004661696C656420746F2066693D
:103086006E64204D505536303530202331000D0A00
:10309600004661696C656420746F2066696E642001
:1030A6004D505536303530202332004D50553120A5
:1030B600416363656C20583A20004D5055322041DB
:0A30C6006363656C20583A20000097
:00000001FF
